:020000040000FA
:060000000A128A110E280D
:10000800FE00030EF3000408F4000A08F5000A12C3
:100018008A11EA2F0A128A1111288317AE30FD00BF
:100028000F30FE006130FF00903084000A128A15FC
:10003800F0260A128A118313D530FD000F30FE0016
:10004800CB30FF00A03084000A128A15F0260A126D
:100058008A116630FD000F30FE002930FF004C3059
:1000680084000A128A15F0260A128A118317AE3004
:100078008400C2300A128A15C9260A128A1183130B
:10008800D5308400EF300A128A15C9260A128A115F
:10009800E601E701E801F70183010A128A114F2AF4
:1000A800FF0000308A007F08820759280A128A1147
:1000B800FA280A128A15D12E0A128A11BC280A12A5
:1000C8008A118A2B0A128A11F22C0A128A11D92E45
:1000D8000A128A15BA2E0A128A11382F0A128A11A0
:1000E800962F0A128A15DB2E83120313A500250802
:1000F800A40002300310A40DFF3E031D7E28031048
:10010800240D3F39403E0A128A116E240A128A11C0
:1001180083120313A60108302602031C942895288D
:100128009728B528B528260822078400230803182D
:10013800230AFF000A128A1100210A128A110A12E0
:100148008A159E270A128A11013083120313A4000C
:100158002408A60708302602031CB328B4289728C9
:10016800B52801300A128A116E240A128A11080071
:10017800E828BF28BF28831203135C080A128A11D3
:1001880054200A128A11003A031DCB28CC28BF2814
:10019800CD28831203132108FF00200884000A12C7
:1001A8008A1100210A128A11A2002208F6005B08AF
:1001B8000A128A1154200A128A1101308312031379
:1001C800A0070318A10AE828831203132108FF00D7
:1001D800200884000A128A1100210A128A11003AA2
:1001E800031DF728F828BF28F92808007608831285
:0601F8000313990008004A
:10020000FF1B0A2983137F1883170008840A031928
:10021000FF0A08007F087F398A000408840A03194E
:10022000FF0A820004340A340434003400340034F9
:1002300000340034413454342B3443345734533471
:10024000413450343D342234573469347234653487
:100250006C3465347334733422342C3422342A34AD
:100260002A342A342A342A342A342A342A342234A6
:100270002C3431342C3432342C3434342C34303467
:100280000D340A340034413454342B34433449346B
:100290005034533454344134523454343D34223481
:1002A00054344334503422342C34223431343934ED
:1002B00032342E343134363438342E3434342E340F
:1002C000313422342C343334333433340D340A345F
:1002D0000034413454342B34433457345334413490
:1002E00050343D34223454344334433422342C3497
:1002F00022343834373436343534343433343234C9
:10030000313422342C3431342C3432342C343434DF
:100310002C3430340D340A340034413454342B340A
:1003200043344934503453344534523456344534CC
:1003300052343D3431342C343334333433340D348B
:100340000A340034413454342B3443345734413468
:10035000553454344F3443344F344E344E343D349A
:1003600030340D340A340034413454342B344334A3
:10037000493450344D344F34443445343D343034B2
:100380000D340A340034413454342B34433449346A
:100390005034533445344E3444343D3434340D34C5
:1003A0000A340034413454342B34433457344D34FC
:1003B0004F34443445343D3431340D340A34003440
:1003C000413454342B344334493450344D3455344F
:1003D00058343D3431340D340A340034413454340B
:1003E0002B34433457344D344F34443445343D3446
:1003F00032340D340A340034413454342B34433411
:1004000057344D344F34443445343D3433340D3453
:100410000A340034413454342B3443344934503496
:1004200043344C344F34533445340D340A3400349F
:10043000413454342B34433457344C3441345034E5
:100440000D340A340034413454342B3443344934A9
:100450004634533452340D340A3400344134543465
:100460002B3443344C344F34533445340D340A3434
:100470000034383437343634353434343334323469
:10048000313400344C345534433441340D340A345F
:100490000034543443344334003420340034831261
:1004A00003135F080A128A1154200A128A110030BD
:1004B00083120313BA000130B900C230B800003013
:1004C000B7000A128A15DB260A128A11B830831285
:1004D0000313A0000B30A1000A128A157F270A120D
:1004E0008A118312031363080A128A1154200A1214
:1004F0008A1183120313E801A401A40A4F080A1207
:100500008A1154200A128A110A128A1175250A12B8
:100510008A1183120313AB01AC01B430CB004B083A
:10052000AD0061080A128A1154200A128A11B830EB
:1005300083120313A0000B30A1000A128A157F2733
:100540000A128A11493083120313A4008230A500D5
:100550003930A6008230A70050080A128A115420B0
:100560000A128A118312031363080A128A11542093
:100570000A128A1183120313E8010A128A117525DF
:100580000A128A1183120313AB01AC01B430CB0001
:100590004B08AD0061080A128A1154200A128A1110
:1005A000B83083120313A0000B30A1000A128A1581
:1005B0007F270A128A11433083120313A00081306F
:1005C000A1004D080A128A1154200A128A11D03053
:1005D00083120313A0000730A1000A128A157F2797
:1005E0000A128A118312031363080A128A11542013
:1005F0000A128A1183120313E8010A128A1175255F
:100600000A128A1183120313AB01AC01B430CB0080
:100610004B08AD0061080A128A1154200A128A118F
:10062000B83083120313A0000B30A1000A128A1500
:100630007F270A128A11C33083120313A00081306E
:10064000A1004D080A128A1154200A128A11F430AE
:1006500083120313A0000130A1000A128A157F271C
:100660000A128A11423083120313A0008230A100C3
:100670004D080A128A1154200A128A11D0308312AE
:100680000313A0000730A1000A128A157F270A125F
:100690008A118312031363080A128A1154200A1262
:1006A0008A1183120313E8010A128A1175250A12AE
:1006B0008A1183120313AB01AC01B430CB004B0899
:1006C000AD0061080A128A1154200A128A11B8304A
:1006D00083120313A0000B30A1000A128A157F2792
:1006E0000A128A118312031363080A128A11542012
:1006F0000A128A1183120313E8012E30A0008230FF
:10070000A1004D080A128A1154200A128A110A12F5
:100710008A110E280A3083120313A8002808CA0081
:100720002C3084009030A8000408A9001E30AA00D4
:100730002808840083170008AB00A80A2908840051
:1007400083132B088000A90AAA0B982BC02B25081D
:10075000FF00240884000A128A1100210A128A115B
:10076000A8004A082C3E840028088313800001302A
:10077000A4070318A50A0130A8002808CA07C02B3F
:100780002508FF00240884000A128A1100210A1299
:100790008A11003A031DCD2BCE2BA72BCF2B223055
:1007A000A8004A082C3E84002808831380000130EA
:1007B000A8002808CA072C30A8004A082C3E84004C
:1007C000280880000130A8002808CA072230A800A5
:1007D0004A082C3E8400280880000130A800280820
:1007E000CA072508FF00240884000A128A11002184
:1007F0000A128A11A800A901280883160317AE005F
:1008000083120313290883160317AF00222C8312C7
:1008100003132708FF00260884000A128A1100210A
:100820000A128A11A8004A082C3E84002808831363
:1008300080000130A6070318A70A0130A800280885
:10084000CA07222C831203132708FF0026088400FE
:100850000A128A1100210A128A11003A031D312C52
:10086000322C072C332C2230A8004A082C3E84005E
:100870002808831380000130A8002808CA070D301B
:10088000A8004A082C3E8400280880000130A800F7
:100890002808CA070A30A8004A082C3E8400280805
:1008A00080000130A8002808CA074A082C3E8400AE
:1008B00080012C30A0000030A1000A128A11BC2057
:1008C0000A128A11883083120313A0001330A1008A
:1008D0000A128A157F270A128A110800F60083126D
:1008E000031308127608A00004300310A00CFF3E8A
:1008F000031D752C08082006F03920068800881290
:1009000076030319842C852C8C2C02307606031D6B
:100910008A2C8B2C972C8C2C0D3083120313A10066
:10092000FB30A000A00B922CA10B922C9F2C4130ED
:1009300083120313A000A00B9B2C9E2C9F2C8312D0
:1009400003138816F0307605A00020302006031D22
:10095000AA2CAB2CC52C08127608A000043003107A
:10096000A00CFF3E031DAF2C08082006F03920061E
:1009700088008812413083120313A000A00BBE2C04
:10098000C12C831203138816C52C08120F3076056C
:10099000A00008082006F039200688008812760397
:1009A0000319D32CD42CDB2C02307606031DD92C52
:1009B000DA2CE62CDB2C0D3083120313A100FB3064
:1009C000A000A00BE12CA10BE12CEE2C41308312F6
:1009D0000313A000A00BEA2CED2CEE2C83120313C2
:1009E00088160800831203132403031DF82CF92C26
:1009F0000E2DD230A0008130A1000A128A11BC2035
:100A00000A128A11E83083120313A0000330A100F8
:100A10000A128A157F270A128A110E2D02308312BC
:100A200003132406031D152D162D412DEE30A000B5
:100A30008130A1000A128A11BC200A128A11E83002
:100A400083120313A0000330A1000A128A157F2726
:100A50000A128A11693083120313A0008130A100A9
:100A60000A128A11BC200A128A11E8308312031379
:100A7000A0000330A1000A128A157F270A128A11EA
:100A8000412D0330831203132406031D482D492DE5
:100A9000742DFC30A0008130A1000A128A11BC2004
:100AA0000A128A11E83083120313A0000330A10058
:100AB0000A128A157F270A128A111A308312031329
:100AC000A0008130A1000A128A11BC200A128A11EA
:100AD000E83083120313A0000330A1000A128A1524
:100AE0007F270A128A11742D0800EB2D0A128A152D
:100AF00043270A128A1183120313A2002208A400BA
:100B000014302402031C852D862D982D2408A20064
:100B10006808B43E84002208831380000130A200DC
:100B20002208E80768081F39A3002308E800EB2D16
:100B30000D302406031D9D2D9E2DC02D4D30A2008D
:100B40006808B43E84002208831380000130A200AC
:100B50002208E80768081F39A3002308E8004D3081
:100B6000A2006808B43E8400220880000130A20080
:100B70002208E80768081F39A3002308E800EB2DC6
:100B80000A302406031DC52DC62DEB2D4D30A200C5
:100B90006808B43E84002208831380000130A2005C
:100BA0002208E80768081F39A3002308E8004D3031
:100BB000A2006808B43E8400220880000130A20030
:100BC0002208E80768081F39A3002308E800EB2D76
:100BD000EB2DEB2DEB2D0A128A15C1260A128A1174
:100BE000003A031DF42DF52D762DF62D0800831205
:100BF0000313A501A11FFD2DFE2D062EA009A1099D
:100C0000A00A0319A10AA501A50A062EA31F092EF1
:100C10000A2E142EA209A309A20A0319A30A01305D
:100C2000F6007608A506142EA601A70120082104C7
:100C300003191B2E1C2E592EA401A40A2B2E0130A1
:100C40000310A00DA10DFF3E031D202E0130F60064
:100C50007608A4072B2EA11F2E2E2F2E1F2E312EED
:100C6000312E01300310A60DA70DFF3E031D322EBD
:100C700021082302031D3E2E20082202031C412EC0
:100C8000422E4A2E2008A2022108031CA303A3021D
:100C900026144A2E01300310A10CA00CFF3E031DA8
:100CA0004B2E0130A402031D562E572E312E592EE5
:100CB000592E250803195D2E5E2E642EA609A7095C
:100CC000A60A0319A70A642E2708A1002608A00077
:100CD000692E0800003083120313AB000030AA0015
:100CE0000030A9000030A8002308220421042004B9
:100CF00003197B2E7C2ECF2EAC01AC0A8D2E013039
:100D0000F6000310A00DA10DA20DA30DF60B812E70
:100D10000130F6007608AC078D2EA31F902E912E81
:100D20007F2E932E932E0130F6000310A80DA90DEF
:100D3000AA0DAB0DF60B952E23082702031DAA2E34
:100D400022082602031DAA2E21082502031DAA2E11
:100D500020082402031CAD2EAE2EBE2E2008A402B5
:100D60002108031C210FA5022208031C220FA60242
:100D70002308031C230FA7022814BE2E01300310E2
:100D8000A30CA20CA10CA00CFF3E031DBF2E013032
:100D9000AC02031DCC2ECD2E932ECF2ECF2E2B08A2
:100DA000A3002A08A2002908A1002808A000D82E24
:100DB000080083120313AF01B0012C08AE002E0807
:100DC000A8002B080A128A1514270A128A112C2F40
:100DD000831203133008803AFF0080307F02031D26
:100DE000F32E20302F020318F62EF72E1F2F83121A
:100DF00003132F080F39AE002E08A8001030A000F2
:100E00000030A1003008A3002F08A2000A128A11A6
:100E1000F7250A128A118312031320080A128A1571
:100E200014270A128A11831203132D0884008313D6
:100E300000080A128A159E270A128A111F2F0130F4
:100E400083120313AE002E08AD070130AF0703185D
:100E5000B00A0030B0072C2F831203132D08840032
:100E600083130008031D352F362FE82E372F080077
:100E7000643083120313A0000030A1000A128A1507
:100E80007F270A128A11831603130810881008118D
:100E90008811081288120817881764308312031308
:100EA000A0000030A1000A128A157F270A128A11B9
:100EB00083120313881628300A128A116E240A122C
:100EC0008A110C300A128A116E240A128A1101301A
:100ED0000A128A116E240A128A1102300A128A1129
:100EE0006E240A128A11643083120313A0000030AA
:100EF000A1000A128A157F270A128A111230831262
:100F00000313A2008130A30001300A128A11782055
:100F10000A128A11643083120313A0000030A1006A
:100F20000A128A157F270A128A1108008B1383126E
:100F300003132D08B1002E08B2002F08B3003008AB
:100F4000B40002300310B10DB20DB30DB40DFF3E6D
:100F5000031DA22F3408A3003308A2003208A10009
:100F60003108A0000130A7003130A6002D30A500C7
:100F70000030A4000A128A116A260A128A1183120A
:100F800003132008FF3EB50021080318013EFF3E71
:100F9000B60035088316031399008312031336082D
:100FA000831603139A0018128316031787158316E6
:100FB0000313181583120313981783160313981637
:100FC000831203131816831603138C160C120B17B7
:100FD0008B170800831203138C1EEF2FF02FF72FAF
:100FE0001A080A128A15FF260A128A11F72F7508A5
:100FF0008A0074088400730E8300FE0E7E0E0900C2
:101D740001300A128A116E240A128A15080083128D
:101D840003136603FF3A67070F39C82E080064007F
:101D94008001840A0406031900340406CA2E0310C1
:101DA40083160313981C0314003003180130DA2E31
:101DB4000800831203133A08B0003908AF0038084A
:101DC400AE003708AD005D080A128A1154200A12C9
:101DD4008A1508007E088A007F0882000A128A1584
:101DE400EC260A128A158000840A04087D06031969
:101DF4000034FF0A0319FE0AF02EF2007208F00004
:101E0400831203136708D53E84007008831380008F
:101E14000130F0007008E70767080F39F100710816
:101E2400E700080083120313AA002A08A900063059
:101E34000310A90DFF3E031D1A2F280829077F3917
:101E4400803E0A128A116E240A128A1508001C3474
:101E5400073400340D340A340034003400340034C0
:101E640000340034003400340034003401340434C9
:101E7400193400341634003410340034133400346C
:101E84000034F601831203136608670603194B2F07
:101E94004C2F5E2F6608D53E840083130008A000F3
:101EA4002008F6000130A0002008E60766080F3974
:101EB400A1002108E6005E2F7608602F0800413457
:101EC40054342B34433457344A34413450343D343D
:101ED400223400340034003400340034003400343C
:101EE400003400340034003400340034003400344E
:101EF40000340034003400340034942F073083124B
:101F04000313A3007C30A200A20B862FA30B862F01
:101F14000000013083120313A0020030031CA1034C
:101F2400A102942F8312031320082104031D9B2F65
:101F34009C2F802F9D2F080083120313A0000816E6
:101F44002008F60004300310F60CFF3E031DA52FF5
:101F540008087606F0397606880088124230F600C2
:101F6400F60BB22F000083120313881608160F30E5
:101F74002005F60008087606F039760688008812EF
:101F84004230F600F60BC42F0000831203138816A8
:101F94000800413454342B344334493450345334DA
:101FA40045344E3444343D34003400340034003479
:101FB400003400340034003400342034003400345D
:101FC400003400340034003400340034003400346D
:101FD400003400340034003400340034003400345D
:101FE400003400340034003400340034003400344D
:0C1FF400003400340034003400340034A9
:04400E00D2E0FFFFFE
:00000001FF
