:020000040000FA
:060000000A128A110E280D
:10000800FE00030EF3000408F4000A08F5000A12C3
:100018008A11F22E0A128A1111288317D930FD008D
:100028000530FE006830FF00903084000A128A1103
:1000380036270A128A118313EF30FD000730FE00BD
:10004800B730FF00EB3084000A128A1136270A12F3
:100058008A115730FD000630FE00DB30FF004030CB
:1000680084000A128A1136270A128A11573084002E
:1000780069300A128A119B270A128A11F601F701C0
:1000880083010A128A117828FF0000308A007F084D
:1000980082074D280A128A11B22F0A128A11912F4B
:1000A8000A128A11332E0A128A11712F0A128A1122
:1000B800B12D0A128A11652F0A128A11572C0A12B9
:1000C8008A11872F0A128A117D2F0A128A11AB2FE3
:1000D8000A128A11B62C0A128A11562F0A128A118C
:1000E800142D0A128A11452FC8308400B8308312A3
:1000F8000313BC000408BD002130BE003C08840086
:1001080083170008BF00BC0A3D08840083133F081A
:100118008000BD0ABE0B8228A03084009030BC004D
:100128000408BD002830BE003C088400831700087E
:10013800BF00BC0A3D08840083133F088000BD0A45
:10014800BE0B982883160313EA010516E8308312BC
:100158000313A0000330A1000A128A119E260A1276
:100168008A118312031350080A128A1148200A12AE
:100178008A11831603136E080A128A1148200A127C
:100188008A11003083120313BB000130BA00C23059
:10019800B9000030B8000A128A1145270A128A11DC
:1001A800E83083120313A0000330A1000A128A1159
:1001B8009E260A128A11E02883120313051AE528DD
:1001C800E628022954080A128A1148200A128A11BC
:1001D80083160313EA0183120313A301A30A4B082E
:1001E8000A128A1148200A128A11FA288312031364
:1001F800051EFF280029FA280229022955080A1293
:100208008A1148200A128A11003A03190C290D296B
:1002180031298312031354080A128A1148200A123A
:100228008A1183160313EA01831203134F080A1273
:100238008A1148200A128A112229222983120313BB
:1002480055080A128A1148200A128A11003A031D19
:100258002E292F29222931293129831203135608DF
:100268000A128A1148200A128A11003A03193D29F4
:100278003E29162A8312031354080A128A114820A9
:100288000A128A1183160313EA01831203134C0816
:100298000A128A1148200A128A11532953298312F3
:1002A800031356080A128A1148200A128A11003AC2
:1002B800031D5F2960295329162A162A162A0A12AD
:1002C8008A11BD260A128A1183120313BC003C0846
:1002D80083160313E90014306902031C7429752975
:1002E8009329690883120313BC00831603136A0851
:1002F800C83E8400831203133C0883138000013036
:10030800BC003C0883160313EA076A081F398312E6
:100318000313BD003D0883160313EA00162A0D30A7
:100328006906031D98299929D329B3308312031329
:10033800BC00831603136A08C83E840083120313A3
:100348003C08831380000130BC003C08831603136B
:10035800EA076A081F3983120313BD003D08831694
:100368000313EA00B33083120313BC00831603138C
:100378006A08C83E8400831203133C0880000130D9
:10038800BC003C0883160313EA076A081F39831266
:100398000313BD003D0883160313EA00162A0A302A
:1003A8006906031DD829D929162AB33083120313E5
:1003B800BC00831603136A08C83E84008312031323
:1003C8003C08831380000130BC003C0883160313EB
:1003D800EA076A081F3983120313BD003D08831614
:1003E8000313EA00B33083120313BC00831603130C
:1003F8006A08C83E8400831203133C088000013059
:10040800BC003C0883160313EA076A081F398312E5
:100418000313BD003D0883160313EA00162A162AA3
:10042800162A162A0A128A11A3270A128A11003AD2
:10043800031D1F2A202A6329212A83120313AC01D2
:10044800AD01C830BC003C08AE0052080A128A113F
:1004580048200A128A11E028E0280A128A110E2878
:1004680002308A000408840A8207003431343234A6
:100478003334413434343534363442343734383410
:10048800393443342A3430342334443461347534B1
:1004980074346F346D346134743469346F346E3449
:1004A8000034313432343334343435343634373438
:1004B800383400344F344B34003404340A340434B0
:1004C80000340034003400340034413454342B34C4
:1004D800433457344A34413450343D34223461343F
:1004E800753474346F346D346134743469346F34F2
:1004F8006E3422342C3422343134323433343434AC
:10050800353436343734383422340D340A34003430
:10051800413454342B3443345734413455345434EF
:100528004F3443344F344E344E343D3430340D342C
:100538000A340034413454342B34433457344D3462
:100548004F34443445343D3430340D340A340034A7
:10055800413454342B34433457344D344F344434B9
:1005680045343D3431340D340A3400344134543484
:100578002B34433457344D344F34443445343D34AC
:1005880032340D340A340034413454342B34433477
:1005980057344D344F34443445343D3433340D34BA
:1005A8000A340034413454342B34433457344C34F3
:1005B800413450340D340A340034413454342B342B
:1005C800433449344634533452340D340A340034F5
:1005D8006E3475346C346C34003483120313A20007
:1005E80008122208A00004300310A00CFF3E031DCF
:1005F800F82A08082006F039200688008812220305
:100608000319072B082B0F2B02302206031D0D2B75
:100618000E2B1A2B0F2B0D3083120313A100FB3066
:10062800A000A00B152BA10B152B222B41308312F8
:100638000313A000A00B1E2B212B222B83120313C4
:100648008816F0302205A00020302006031D2D2B2F
:100658002E2B482B08122208A00004300310A00CEF
:10066800FF3E031D322B08082006F03920068800BB
:100678008812413083120313A000A00B412B442B96
:10068800831203138816482B08120F302205A00086
:1006980008082006F039200688008812220303196A
:1006A800562B572B5E2B02302206031D5C2B5D2B2D
:1006B800692B5E2B0D3083120313A100FB30A000C1
:1006C800A00B642BA10B642B712B413083120313F5
:1006D800A000A00B6D2B702B712B831203138816AF
:1006E800080083120313A601A11F7B2B7C2B842BEC
:1006F800A009A109A00A0319A10AA601A60A842B28
:10070800A31F872B882B922BA209A309A20A0319DE
:10071800A30A0130A4002408A606922BA701A80169
:10072800200821040319992B9A2BD72BA501A50A78
:10073800A92B01300310A00DA10DFF3E031D9E2B18
:100748000130A4002408A507A92BA11FAC2BAD2BB1
:100758009D2BAF2BAF2B01300310A70DA80DFF3E2B
:10076800031DB02B21082302031DBC2B20082202E5
:10077800031CBF2BC02BC82B2008A2022108031C76
:10078800A303A3022714C82B01300310A10CA00C4B
:10079800FF3E031DC92B0130A502031DD42BD52B09
:1007A800AF2BD72BD72B26080319DB2BDC2BE22BFF
:1007B800A709A809A70A0319A80AE22B2808A10073
:1007C8002708A000E72B0800003083120313AC00B1
:1007D8000030AB000030AA000030A9002308220432
:1007E800210420040319F92BFA2B4D2CAD01AD0A75
:1007F8000B2C0130A8000310A00DA10DA20DA30D14
:10080800A80BFF2B0130A8002808AD070B2CA31F4D
:100818000E2C0F2CFD2B112C112C0130A8000310CD
:10082800A90DAA0DAB0DAC0DA80B132C230827029C
:10083800031D282C22082602031D282C2108250226
:10084800031D282C20082402031C2B2C2C2C3C2CA8
:100858002008A4022108031C210FA5022208031C5A
:10086800220FA6022308031C230FA70229143C2CDD
:1008780001300310A30CA20CA10CA00CFF3E031D19
:100888003D2C0130AD02031D4A2C4B2C112C4D2C54
:100898004D2C2C08A3002B08A2002A08A100290827
:1008A800A000562C080083120313B001B1012D08D3
:1008B800AF002F08A9002C080A128A1108270A126B
:1008C8008A11AA2C831203133108803AFF00803062
:1008D8007F02031D712C203030020318742C752CF4
:1008E8009D2C8312031330080F39AF002F08A9007D
:1008F8001030A0000030A1003108A3003008A20089
:100908000A128A1175230A128A1183120313200806
:100918000A128A1108270A128A11831203132E0851
:100928008400831300080A128A116D260A128A119C
:100938009D2C013083120313AF002F08AE0701303E
:10094800B0070318B10A0030B107AA2C83120313A9
:100958002E08840083130008031DB32CB42C662CC6
:10096800B52C0800643083120313A0000030A100E6
:100978000A128A119E260A128A1183160313081076
:10098800881008118811081288120817881764300F
:1009980083120313A0000030A1000A128A119E26B8
:1009A8000A128A1183120313881628300A128A1130
:1009B800F1220A128A110C300A128A11F1220A1243
:1009C8008A1101300A128A11F1220A128A110230A0
:1009D8000A128A11F1220A128A116430831203134F
:1009E800A0000030A1000A128A119E260A128A115C
:1009F800283083120313A7002708A30001300A1226
:100A08008A11F3250A128A11643083120313A00095
:100A18000030A1000A128A119E260A128A110800C3
:100A28008B13831203132E08B2002F08B30030086B
:100A3800B4003108B50002300310B20DB30DB40D87
:100A4800B50DFF3E031D202D3508A3003408A20074
:100A58003308A1003208A0000130A7003130A600F9
:100A68002D30A5000030A4000A128A11E8230A12CA
:100A78008A11831203132008FF3EB60021080318C9
:100A8800013EFF3EB7003608831603139900831210
:100A980003133708831603139A00181283160317D3
:100AA80087158316031318158312031398178316D3
:100AB80003139816831203131816831603138C1640
:100AC8000C120B178B170800203400340034003444
:100AD800003400340034003400340034003400346E
:100AE800003400340034003400340034003400345E
:100AF800003400340034003400340034003400344E
:100B0800003400340034003400340034003400343D
:100B1800003400340034003420340034003400340D
:100B2800003400340034003400340034003400341D
:100B3800003400340034003400340034003400340D
:100B480000340034003400340034003400340034FD
:100B580000340034003400340034831203132303B8
:100B6800031DB72DB82DC22D7330A4002408A10091
:100B78000A128A1133260A128A11C22D02308312F0
:100B880003132306031DC92DCA2DD42D8130A400BB
:100B98002408A1000A128A1133260A128A11D42DB8
:100BA8000330831203132306031DDB2DDC2DE62DF2
:100BB8008F30A4002408A1000A128A1133260A12D1
:100BC8008A11F22D653083120313A4002408A100B2
:100BD8000A128A1133260A128A11F22D080083128A
:100BE8000313A5002508A40002300310A40DFF3E3E
:100BF800031DF92D0310240D3F39403E0A128A11B6
:100C0800F1220A128A1183120313A6010830260260
:100C1800031C0F2E102E122E2C2E2C2E26082307E6
:100C280084000A128A1134220A128A110A128A11BD
:100C38006D260A128A11013083120313A4002408B6
:100C4800A60708302602031C2A2E2B2E122E2C2E25
:100C580001300A128A11F1220A128A1108005D2E47
:100C6800362E362E8312031345080A128A1148209D
:100C78000A128A11003A031D422E432E362E442EA4
:100C880083120313210884000A128A1134220A12DB
:100C98008A11A2002208A00044080A128A114820DA
:100CA8000A128A11013083120313A2002208A10735
:100CB8005D2E83120313210884000A128A1134223C
:100CC8000A128A11003A031D6A2E6B2E362E6C2EDC
:100CD800080083120313A10008162108A00004309D
:100CE8000310A00CFF3E031D742E08082006F039DF
:100CF800200688008812413083120313A000A00B3D
:100D0800832E862E83120313881608160F302105AA
:100D1800A00008082006F039200688008812413013
:100D280083120313A000A00B972E9A2E831203138D
:100D380088160800B32E073083120313A3007C30F3
:100D4800A200A20BA52EA30BA52E00000130831232
:100D58000313A0020030031CA103A102B32E8312C7
:100D6800031320082104031DBA2EBB2E9F2EBC2E70
:100D7800080083120313A201670868060319C52E29
:100D8800C62ED82E6708573E840083130008A0009B
:100D98002008A2000130A0002008E70767080F39E3
:100DA800A1002108E700D82E2208DA2E0800003416
:100DB8000034003400340134043425340034283439
:100DC800073400340D340A340034003410341F342E
:100DD8000034133400341C341634193483120313CA
:100DE8008C1EF72EF82EFF2E1A080A128A111D27BC
:100DF8000A128A11FF2E75088A0074088400730E7F
:100E08008300FE0E7E0E090083120313AB002B082D
:100E1800AA0006300310AA0DFF3E031D0E2F290855
:100E28002A077F39803E0A128A11F1220A128A1192
:100E38000800F2007208F000831203136808573E96
:100E480084007008831380000130F0007008E80700
:100E580068080F39F1007108E80008007E088A0068
:100E68007F0882000A128A1132270A128A1180002A
:100E7800840A04087D0603190034FF0A0319FE0AD0
:100E8800362F831203133B08B1003A08B000390823
:100E9800AF003808AE0046080A128A1148200A1224
:100EA8008A11080083120313860183160317890128
:100EB8000F3083160313860095018117F701F60199
:100EC80008009D3083120313A3002308A1000A120F
:100ED8008A1133260A128A1108003030831203134C
:100EE800A3002308A1000A128A1133260A128A11C4
:100EF8000800031083120313881F0314003003181B
:100F08000130862F0800031083120313081F0314EF
:100F1800003003180130902F0800031083160313C4
:100F2800981C03140030031801309A2F080064003D
:100F38008001840A04060319003404069C2F8312D6
:100F480003136703FF3A68070F39AA2F0800013017
:100F58000A128A11F1220A128A1108008312031355
:0E0F68002008990008000034003400342234C0
:04400E00D2E0FFFFFE
:00000001FF
