:020000040000FA
:100000000A128A11EB2FFF0000308A007F08820756
:0800100008280A128A11262FAC
:100C680083120313091009140800013400340034F6
:100C780000340034003400347E088A007F08820083
:100C88000A128A1140260A128A118000840A04086E
:100C98007D0603190034FF0A0319FE0A442E622E4A
:100CA800C730F200572EF20B562E5A2E5B2E01300B
:100CB800F0020030031CF103F102622E7008710487
:100CC800031D672E682E542E692E08000A128A11F9
:100CD80026270A128A112030F9007908F00004301A
:100CE800FA007A08F10024300A128A11BD260A1285
:100CF8008A117E2E831203132408F9007908A000B4
:100D08002508F9007908A1000A128A11F1260A12A9
:100D18008A117E2E7E2E0A128A110028F100803058
:100D2800F0007008F300F201B22E83120313891049
:100D3800710873050319A12EA22EA42E0915A52E3C
:100D48000911891DA82EA92EAE2E7308F00070086F
:100D5800F204AE2E89140310F30CB22E7308031D8F
:100D6800B62EB72E992E8312031389107208BC2E43
:100D78000800F3007308F2007208FD007008F20022
:100D88007208FC007108F2007208FB00831203135A
:100D98000910831603178812831603130910831288
:100DA8000313891083160317081383160313891076
:100DB8008312031309118316031788138316031369
:100DC8000911831203130908831603138915831263
:100DD800031389100911091408007B08FF3EF40069
:100DE8007408F7000A128A1134260A128A11F801C7
:100DF800192F7803FF3A77077C07F40074088400FA
:100E0800831300080A128A1192260A128A11F50021
:100E180078087D07F600760884007508831380003B
:100E28000130F4007408F807192F7B087802031CB6
:100E38001E2F1F2FFD2E202F0A128A1134260A1268
:100E48008A1108006430F0000030F1000A128A119B
:100E580053260A128A11831603178901831603136E
:100E68000810881008118811081288126430F000E0
:100E78000030F1000A128A1153260A128A118312CD
:100E88000313881428300A128A1168270A128A1153
:100E98000C300A128A1168270A128A1101300A12C4
:100EA8008A1168270A128A1102300A128A116827E1
:100EB8000A128A116430F0000030F1000A128A1117
:100EC80053260A128A110800F2008312031308102D
:100ED8007208F00004300310F00CFF3E031D6F2F62
:100EE8007008F100F10DF10D08087106C33971069B
:100EF8008800881072030319822F832F8A2F0230EB
:100F08007206031D882F892F942F8A2F0330F10032
:100F18009730F000F00B8E2FF10B8E2F932F992F17
:100F28000D30F000F00B962F992F831203138814BD
:100F3800F0307205F00020307006031DA42FA52F95
:100F4800C02F08107208F00004300310F00CFF3EA8
:100F5800031DA92F7008F100F10DF10D08087106A5
:100F6800C3397106880088100D30F000F00BBA2FD5
:100F7800831203138814C02F081072080F39F00069
:100F8800F00DF00D08087006C33970068800881047
:100F980072030319D02FD12FD82F02307206031DE8
:100FA800D62FD72FE22FD82F0330F1009730F0003B
:100FB800F00BDC2FF10BDC2FE12FE72F0D30F000C9
:100FC800F00BE42FE72F8312031388140800831310
:100FD8002F30FD000630FE003930FF002830840035
:100FE8000A128A1144260A128A11FB01FC01FD012A
:080FF80083010A128A116A2E1E
:04400E00D4E0FFFFFC
:00000001FF
